S01B00004144584C3334355F4932435F6578616D706C652E73726563DC
S1130000982A0020590500005505000055050000F8
S113001000000000000000000000000000000000DC
S11300200000000000000000000000005505000072
S11300300000000000000000550500005505000008
S11300405505000055050000550500005505000044
S11300505505000055050000550500005505000034
S11300605505000055050000550500005505000024
S11300705505000055050000550500005505000014
S11300805505000055050000550500005505000004
S113009055050000550500005505000055050000F4
S11300A055050000550500005505000055050000E4
S11300B00000000010B5064C2378002B07D1054B37
S11300C0002B02D0044800E000BF0123237010BDC0
S11300D0B009002000000000DC8D0000084B10B5C2
S11300E0002B03D00749084800E000BF0748036815
S11300F0002B00D110BD064B002BFBD09847F9E72D
S113010000000000B4090020DC8D0000DC8D00003C
S11301100000000010B500200F4B9847FF23E5288E
S113012001D0180010BD0021B7380C4CA04716218F
S11301301D20A04732212120A04700212220A047D2
S113014000212320A04707212A20A04708212D2091
S1130150A0470023E5E7C046E9040000B504000019
S113016070B505000C00012917D0002912D002290E
S113017016D0032917D031200C4B9847F0210140A9
S1130180082020430143C9B23120094B98476C82AF
S1130190002070BD02238377EDE704238377EAE729
S11301A008238377E7E710238377E4E7E904000073
S11301B0B504000010B53120024B984703231840C2
S11301C010BDC046E904000010B581752C20024B17
S11301D09847002010BDC046B504000010B52C207F
S11301E0024B98470F23184010BDC046E904000095
S11301F0F0B585B0050032201C4CA047A8813420FE
S1130200A047E8813620A047029028821E20285665
S1130210174FB847009001910C23E85EB847154E7C
S1130220009A019BB047144A144BB047144CA047A2
S113023028600E23E85EB847009A019BB0470E4A37
S11302400E4BB047A04768600298B84702900391EC
S1130250094A0A4B00980199B04702000B00029822
S11302600399B047A047A86005B0F0BD0905000098
S11302702D2D000099210000FCA9F1D24D62703FA0
S1130280C52E000070B504001E20054DA84720832C
S11302901F20A84760832020A847A08370BDC046C4
S11302A0E904000070B516001D00C9B21E20044CFC
S11302B0A047F1B21F20A047E9B22020A04770BD9B
S11302C0B5040000F0B5DE4657464E464546E0B557
S11302D083B001900023038343838383837D0A2BAC
S11302E02CD89B00684AD3589F460A239946A023DA
S11302F01B01009347E00A239946644B009342E0B4
S11303000A2399463733FF3300933CE00A23994686
S11303109633009337E00A2399464633009332E03C
S11303200A2399461E3300932DE00A2399460A3383
S1130330009328E00A239946009324E02823994651
S1130340233B00931FE00023002200210198504C1E
S1130350A04728204F4DA84732204F4CA0473420B7
S1130360A0473620A0474D4C2000A8470A239946B1
S113037000941AE00A239946494B009303E00A23A8
S11303809946484B00930023002200210198404CD9
S1130390A04728203F4DA84732203F4CA047342097
S11303A0A0473620A0470098A84700239846002578
S11303B000240027384E374B9B463220B0473F1865
S11303C03420B04724183620B0472D180098D84759
S11303D043460133DBB29846C845EED338B2324BBC
S11303E09B464F464946984703B2D8170322904686
S11303F01040C01880102D4B9A4698472C4B9946B4
S11304000200802000060B1810001900C84703B230
S11304101A00019E330000921A8320B23900D84793
S113042003B2D81744462040C0188010D0470200B9
S1130430802000060B1810001900C84704B274830A
S113044039002800D8470138FF3803B2D81741468D
S11304500840C0188010D0470200802000060B1806
S113046010001900C84703B2B3835BB262B2694695
S1130470097849B23000064CA04703B03CBC904612
S11304809946A246AB46F0BD9C8700008A02000054
S1130490A502000031050000090500001027000036
S11304A08813000005050000991700002D2D000099
S11304B0C52C000010B5074B18705970064953221B
S11304C00A80064A4A808B6002234B600448054B2D
S11304D0984710BDCC090020140A00200080FFFFBB
S11304E02C0A00200909000070B50100034C221DEC
S11304F001230348034DA847207970BDCC0900208F
S11305002C0A0020C108000070B50100054C221D12
S113051002230548054DA84763791B022079184337
S113052000B270BDCC0900202C0A0020C1080000D4
S113053010B5024B9847002010BDC046E1070000EB
S113054010B5024B9847024B984710BD7D07000039
S113055065160000FEE70000F8B52A4A2A4B9A42C5
S113056011D01A00294B9A420DD2294A03339B1AFF
S11305709B0801339B000022234822498C58845055
S113058004329A42FAD1234A234B9A420AD2D343E1
S113059021495B1803218B4304339B18002102C2B9
S11305A09342FCD11D4AFF211D4B8B439360FD39BF
S11305B090235B001B4AD1501B4AD3780325AB43DD
S11305C002242343D370D3780C27BB430826334338
S11305D0D370164B987B302290432022104398739B
S11305E0997BB943314399739A7BAA4322439A7303
S11305F00F4A536880210B4353600E4B98470E4BB0
S11306009847FEE7DC8D000000000020B0090020C0
S113061004000020B0090020940A002000ED00E04E
S113062000000000007000410050004100480041FB
S113063000400041A93200005514000070B5124B6F
S11306404820195C042291431954195C0125A943DB
S113065001242143C9B219541438195C0F26B1433B
S11306600D3E3143195449215E5C96435E545A5CF5
S1130670AA432243D2B25A541A5C3A390A4011317D
S11306800A431A5470BDC04600440041054A136A27
S113069004210B431362044B044A5A80044A5A80CF
S11306A07047C04600040040000C004014400000A5
S11306B01343000010B5044B984704490448054B04
S11306C09847054B984710BD8D060000000800426E
S11306D02C0A0020610800003D06000030B50E4BD6
S11306E05622995C0125A94301242143C9B2995496
S11306F03B20195C473A91430D3A11431954572151
S11307005A5CAA432243D2B25A541A5C48390A406A
S113071011310A431A5430BD00440041044A136A9B
S113072020210B431362034A034B5A807047C0468F
S11307300004004017400000000C004010B5054BB9
S11307409847002204490548054B9847054B9847AC
S113075010BDC0461D07000000140042200A0020FE
S1130760610A0000DD06000010B50248024B9847FC
S113077010BDC04610E000E0CD07000010B50D4BE1
S11307809847C023DB058022D20594215A500C39A6
S11307905A50094B20315A50084A5A5036315A5C43
S11307A0012082435A54064B9847064B9847064B00
S11307B0984710BD250B000000440041004000C0D4
S11307C0B50600003D0700006907000010B5024BA4
S11307D01860024B984710BDD4090020ED130000A7
S11307E010B5044B1C68044B984701002000034BD0
S11307F0984710BDD40900201D0B0000011400000F
S113080010B584B0140001AB1438828B1A800294A2
S1130810054A5A8003911900044B9847002800D1D7
S1130820200004B010BDC0460080FFFF610E000030
S113083010B584B0140001AB1438828B1A80029472
S1130840054A5A8003911900044B9847002800D1A7
S1130850200004B010BDC0460180FFFF610E0000FF
S113086070B504000D00431E9841C0B25E220749D2
S1130870074B984729002000064B9847002803D1CE
S1130880054BA361054B636170BDC046C88700007A
S1130890D90A0000AD0D0000310800000108000075
S11308A010B5014B984710BDDD0D00008905890D79
S11308B08023DB001A400A43828310007047000043
S11308C070B586B0040016001D006B46D97107335D
S11308D003A9828B0A8001224A6000224A808B602D
S11308E0074B9847002801D006B070BD03A9054BFB
S11308F04B808E604D602000014B9847F4E7C04662
S1130900610E00000180FFFF10B5014B984710BD38
S1130910610E000070B506000C00150000280DD013
S11309200800431E9841C0B234220549054B98473C
S113093033682A0021003000984770BD0020F3E797
S1130940E4870000D90A000070B506000C00150009
S113095000280DD00800431E9841C0B23D2205492D
S1130960054B984773682A0021003000984770BDF2
S11309700020F3E7E4870000D90A0000F8B5CE466A
S1130980474680B504000F009046002826D0002971
S113099026D01000431E9841F1221249124B984769
S11309A00834124D2000A8470028FBD00026104B25
S11309B099460E4DB95D2000C8472000A84700287D
S11309C0FBD001364645F5D30A4D2000A847002840
S11309D0FBD030000CBC90469946F8BD0020DBE704
S11309E00020D9E7F8870000D90A00008D0D000027
S11309F07D0D0000970D0000F8B5CE46474680B542
S1130A0004000F00904600281DD000291DD01000BE
S1130A10431E9841862252000D490E4B98470026EA
S1130A2008340D4D0D4B99462000A8470028FBD0F3
S1130A302000C847B85501364645F5D330000CBCF4
S1130A4090469946F8BD0020E4E70020E2E7C0465E
S1130A50F8870000D90A0000A10D0000850D0000F0
S1130A6070B505000C00002813D00800431E9841FF
S1130A70C0B234220849094B9847280008302100A5
S1130A80074B9847002803D1064B6B60064B2B603D
S1130A9070BD0020EDE7C046F8870000D90A0000C9
S1130AA03D0D0000F90900007D09000010B50400A7
S1130AB0431E9841C0B253220449054B9847200075
S1130AC00830044B9847002010BDC046F88700004A
S1130AD0D90A0000690D0000002800D100BE70474B
S1130AE00300064A1268002A04D0044A1068C31896
S1130AF0136070470249014A1160F6E7D8090020E3
S1130B00982A002001204042704780239B014B60BB
S1130B10002070470120704700207047FA235B01D2
S1130B205843704710B5064B5A685A60054B9847AE
S1130B30054B9847054B9847FF20054B984710BD38
S1130B4000400041750B000099130000DD13000004
S1130B50550B0000C3070AD5054B802252009A604A
S1130B60832252025A601A005378DB09FCD1704781
S1130B70000C0040064B1A7AD2B21A725A7AD2B2D8
S1130B805A729A7AD2B29A72DA7AD2B2DA72704716
S1130B900004004010B5084B9C466044800AC0B273
S1130BA0002807D0E622920004490020044B98470D
S1130BB00120404210BDC04600F8FFBD2C88000053
S1130BC0D90A000070B505000C000800314B9847A5
S1130BD0C0B2E369DB0721D443001B18DB002E4AB3
S1130BE0D31859681C2319400322E3691A42FCD123
S1130BF023689B070BD523680222934323600132A9
S1130C00E3691A42FCD10222E3691A42FCD10123AE
S1130C100B4323600322E3691A42FCD10122E369F6
S1130C201A42FCD143001B18DB001B4AD318596835
S1130C3021600322E3691A42FCD143001B18DB0044
S1130C40154AD3189B6863600422E3691A42FCD1F5
S1130C5043001B18DB00104AD318DB68E3608901EA
S1130C60890FA981636A0D4E1E4001238B429B416B
S1130C705B429B03334363620422E3691A42FCD15F
S1130C8043001818C000044B1818438AEB81002055
S1130C9070BDC046950B000014880000FFBFFFFF25
S1130CA010B504001F4BC3189B0ADBB2032B04D0FE
S1130CB01D4A1E4900201E4B9847E369DB0718D4E0
S1130CC00322E3691A42FCD123689B070BD52368EE
S1130CD00222934323600132E3691A42FCD10222C7
S1130CE0E3691A42FCD1052323600322E3691A4213
S1130CF0FCD10122E3691A42FCD10E4B236003228A
S1130D00E3691A42FCD1C0239B0263600722E369B2
S1130D101A42FCD1084BA3810023A3733022A354AD
S1130D20002010BD00F8FFBD3A0200002C8800002E
S1130D30D90A00000400104004C5FFFF70B5050087
S1130D400C00431E9841C0B2B4220449044B984796
S1130D502C602000034B984770BDC0462C880000CF
S1130D60D90A0000A10C00000268136802210B4399
S1130D7013600131D3691942FCD17047036889B209
S1130D80198570470368188DC0B270470368187ED0
S1130D900123184070470368187E8007C00F70470E
S1130DA00368187E4007C00F7047000070B5040048
S1130DB00D00431E9841C0B2044A0549054B9847AB
S1130DC0256129002000044B984770BD07050000E9
S1130DD02C880000D90A0000C50B000070B504007F
S1130DE01A4D431E9841C0B2194A2900194EB04702
S1130DF024692000431E9841C0B2174A2900B04715
S1130E0023680222134323600132E3691A42FCD1AE
S1130E1004250422032010261049E3691A42FCD158
S1130E20638B1B090340012B0AD001390029F4D13B
S1130E30013D002D06D06683E3691A42FCD1EBE73D
S1130E40002070BD06204042FBE7C0462C8800000D
S1130E5024050000D90A0000F4050000FFFF00008B
S1130E60F0B5DE4657464E464546E0B583B005002C
S1130E70884604690600731E9E41F3B20193B44F81
S1130E80B44A39001800B44EB0472869431E98414B
S1130E90C0B2B822D2003900B0474046431E984140
S1130EA0C0B2AE4A3900B0476B88DB0500D524E2F6
S1130EB043465A8880235B001A4341464A802A00ED
S1130EC0C1C9C1C26268134363600422E3691A4260
S1130ED0FCD12F693B689946A14A9D4901989E4BD4
S1130EE098476B68012B5AD07B689E4A13407B60FD
S1130EF00422FB691A42FCD12B885A055CD56A8806
S1130F00D20704D56A888021C9000A436A805B003D
S1130F10954919400422FB691A42FCD17B6A80225C
S1130F20D2011A4080231B0213431943796204221D
S1130F30FB691A42FCD129690B7EDBB28B4A032080
S1130F40184204D10B7EDBB2013A002AF8D13E6884
S1130F500421FA691142FCD17A8B92B2D90700D4E8
S1130F60A0E093073ED501233B766B88802149019D
S1130F700B436B806B887E490B406B800120030020
S1130F8013405842584105386B88794A13406B80A6
S1130F9003B03CBC90469946A246AB46F0BD4B46D6
S1130FA01B01A1D57A688023DB0213437B600422F2
S1130FB0FB691A42FCD19FE76A885B00FF210B4062
S1130FC0FE39114019430422FB691A42FCD17B6AA1
S1130FD08022D20113400B437B620422FB691A4234
S1130FE0FCD1A8E753071BD46B885B0535D52B8848
S1130FF0DB09062119400422FB691A42FCD17B6AF1
S11310008022D2011340F12213430B437B62ED3A59
S1131010FB691A42FCD16B88564A13406B8066E028
S11310206B68002B04DD6B888022520113436B80B4
S11310306B881BB2002B06DB6B884D4A13406B8018
S113104002204042A0E77A68C0239B0213437B60DE
S11310500423FA691342FCD1EEE76B68002B12D12A
S11310606B881BB2002B04DB6B88414A13406B80F6
S11310703DE07A68C0239B0213437B600422FB6932
S11310801A42FCD1F0E7AB681A782823FA540422F8
S1131090FB691A42FCD1AB680133AB606B68013B5E
S11310A06B6024E09B0722D56B68002B40D052076D
S11310B03ED43601F60F013B6B60002B00D01FE1DC
S11310C0002E00D122E16B881BB2002B1DDB6B8844
S11310D0274A13406B80A9684B1CAB600422FB6950
S11310E01A42FCD12823FB5C0B7002233B760026BA
S11310F080235B009A4603210422FF3B9C46013374
S1131100994626339B460196C2E07B68184A1340F1
S11311107B600632FF32FB691A42FCD17A68C02335
S11311209B0213437B600422FB691A42FCD1CEE785
S113113002233B760220404226E76268C0239B02DA
S1131140134363600422E3691A42FCD1B5E0C0464C
S11311502C880000BF050000D90A0000C10500006A
S113116094050000FFFFFBFFFE070000FFFF0000E7
S1131170FFFEFFFFFFFBFFFF02421BD16B885B05F5
S113118035D52B88DB0906201840E3691A42FCD1C7
S1131190636A8026F6013340F126334303436362D6
S11311A0E3691A42FCD16B88784803406B800023C2
S11311B001936DE06B68002B04DD6B888020400197
S11311C003436B806B881BB2002B07DB6B88704872
S11311D003406B8002235B42019359E06068C023A3
S11311E09B0203436360E3691A42FCD1EEE76B6838
S11311F0002B13D16B881BB2002B06DB6B88644871
S113120003406B800023019342E06068C0239B028B
S113121003436360E3691A42FCD1EFE7AB681B78D0
S113122058462354E3691A42FCD1AB680133AB60DE
S11312306B68013B6B600023019329E00026019653
S11312404E461E4224D06B68002B4DD002424BD137
S1131250FF0E60460740013B6B60002B00D082E02C
S1131260002F00D185E06B881BB2002B2CDB6B8830
S1131270474803406B80A868431CAB60E3691A428B
S1131280FCD15B46E35C03704B4623760023019359
S11312906B88504603422DD02E69337EDBB23D4825
S11312A0194241D1337EDBB201380028F8D14346DC
S11312B05B881BB2002B00DA3FE76B88344A13408B
S11312C06B800520404263E66368314803406360F5
S11312D0E3691A42FCD16068C0239B020343636044
S11312E0E3691A42FCD1C2E74B46237602235B42F0
S11312F00193CDE7019E30004AE60620404247E6CE
S1131300012B00D0E7E6002E00D1E4E67A688023C2
S1131310DB0213437B600422FB691A42FCD16B6835
S1131320002B00D1CFE6D6E62768E0690242FCD163
S1131330608B80B266461E4200D17FE74B46034273
S113134000D119E726766B888026760133436B80BB
S11313506B880F4E33406B806346184046424641CB
S1131360731F019394E7012B00D084E7002F00D171
S113137081E760688023DB0203436360E3691A4208
S1131380FCD16B68002B00D16DE774E7FFFBFFFF16
S1131390FFFEFFFFFFFF00000E4B196A1A6A0E489A
S11313A00140920F9207022002430A431A629A698B
S11313B002439A611A7F1F210A401A7719000822F2
S11313C0CB681A42FCD0034A136A80210B43136290
S11313D07047C046000800400000FF0F024A9369AE
S11313E002218B439361704700080040024B034A7B
S11313F05A6005221A60704710E000E0FFFFFF000A
S113140070B50B0E5E1EF6B2002B13D034000E4ADC
S11314100E4D802040025560956013680342FCD055
S1131420013CE4B2FF2CF6D13306F61A084B9C4675
S113143061447118044B596099601900802252026A
S11314400B681342FCD070BD10E000E0FFFFFF000A
S1131450010000FFF0B5C64600B586B0384B98478A
S1131460384C8022120153212000374B984720002A
S1131470364B98473648374B98473748374B984749
S1131480002859D1344C0A212000354B98470A20B2
S1131490344DA84703212000334B98476420A847C4
S11314A02000324B984706000A20A8472000304B02
S11314B09847020031002F482F4B98472F48254B5F
S11314C0984720002E4B9847FA20C000A847224C8A
S11314D02C4F2D4B98462000B8472000C0471022BF
S11314E0A35E0E21625E0C20215E2848224DA8478F
S11314F0274E2068B04704900591A068B047029039
S113150003916068B04700900191049A059B2148BB
S1131510A8471C22A35E1A21625E1820215E1E4881
S1131520A847FA2040000F4B98478021C9059C2307
S1131530C022D205D150CEE71848064B9847A1E700
S1131540410500002C0A0020AD080000A10800009D
S113155058880000493400004C0A0020150100009E
S1131560C9010000E107000061010000B5010000AD
S1131570DD0100008888000085330000A888000091
S1131580C5020000F101000085020000D0880000BF
S1131590212E0000F88800001889000070880000DF
S11315A010B50B00002809D111001800054B98470D
S11315B0002800DB10BD01204042FBE7012040422F
S11315C0F8E7C0461D16000010B50B0001380228CC
S11315D009D811001800054B9847002800DB10BDFE
S11315E001204042FBE701204042F8E74116000099
S11315F070B50600064D2B6898680021054CA0477D
S11316002B6858680021A047034B1E6070BDC0467C
S1131610000000205D340000DC09002010B5040047
S1131620054B1868002804D08AB22100034B984760
S113163010BD0020FCE7C046DC0900204909000079
S113164010B50400054B1868002804D08AB22100A4
S1131650034B984710BD0020FCE7C046DC0900207E
S11316601509000010B5044C2000044B98472000D5
S1131670034B984710BDC046200A0020AD0A000065
S1131680F1150000002243088B4274D303098B42F6
S11316905FD3030A8B4244D3030B8B4228D3030C3E
S11316A08B420DD3FF22090212BA030C8B4202D3E0
S11316B01212090265D0030B8B4219D300E0090A08
S11316C0C30B8B4201D3CB03C01A5241830B8B4211
S11316D001D38B03C01A5241430B8B4201D34B03FA
S11316E0C01A5241030B8B4201D30B03C01A52415F
S11316F0C30A8B4201D3CB02C01A5241830A8B42E4
S113170001D38B02C01A5241430A8B4201D34B02CC
S1131710C01A5241030A8B4201D30B02C01A524130
S1131720CDD2C3098B4201D3CB01C01A52418309E4
S11317308B4201D38B01C01A524143098B4201D31E
S11317404B01C01A524103098B4201D30B01C01A49
S11317505241C3088B4201D3CB00C01A52418308C3
S11317608B4201D38B00C01A524143088B4201D3F0
S11317704B00C01A5241411A00D201465241104650
S11317807047FFE701B5002000F0F0F802BDC04645
S11317900029F7D076E7704703460B437FD4002235
S11317A043088B4274D303098B425FD3030A8B42F1
S11317B044D3030B8B4228D3030C8B420DD3FF225B
S11317C0090212BA030C8B4202D31212090265D029
S11317D0030B8B4219D300E0090AC30B8B4201D3DC
S11317E0CB03C01A5241830B8B4201D38B03C01A23
S11317F05241430B8B4201D34B03C01A5241030B9A
S11318008B4201D30B03C01A5241C30A8B4201D34A
S1131810CB02C01A5241830A8B4201D38B02C01AF5
S11318205241430A8B4201D34B02C01A5241030A6C
S11318308B4201D30B02C01A5241CDD2C3098B4251
S113184001D3CB01C01A524183098B4201D38B01CE
S1131850C01A524143098B4201D34B01C01A524171
S113186003098B4201D30B01C01A5241C3088B42B6
S113187001D3CB00C01A524183088B4201D38B00A1
S1131880C01A524143088B4201D34B00C01A524143
S1131890411A00D201465241104670475DE0CA0F1A
S11318A000D04942031000D34042534000229C46DA
S11318B003098B422DD3030A8B4212D3FC228901E4
S11318C012BA030A8B420CD3890192118B4208D3BA
S11318D0890192118B4204D389013AD0921100E01C
S11318E08909C3098B4201D3CB01C01A5241830930
S11318F08B4201D38B01C01A524143098B4201D35D
S11319004B01C01A524103098B4201D30B01C01A87
S11319105241C3088B4201D3CB00C01A5241830801
S11319208B4201D38B00C01A5241D9D243088B4257
S113193001D34B00C01A5241411A00D201466346FA
S113194052415B10104601D34042002B00D549425E
S1131950704763465B1000D3404201B5002000F09D
S113196005F802BD0029F8D016E770477047C04655
S1131970002B11D1002A0FD1002900D1002802D058
S11319800021C943081C07B4024802A14018029070
S113199003BDC046D9FFFFFF03B4684601B50298F2
S11319A000F006F8019B9E4602B00CBC7047C0468E
S11319B0F0B557464E464546DE46E0B5040083B0D2
S11319C00D00924699468B422FD82CD0494650465A
S11319D001F05EFB29000600200001F059FB331AD8
S11319E09846203B9B4600D574E053465A469340A4
S11319F01F005346424693401E00AF4229D826D0CA
S1131A005B46A41BBD41002B00DA79E000220023D1
S1131A100092019301235A469340019301234246C5
S1131A209340009319E08242D0D90022002300920F
S1131A3001930C9B002B01D01C605D600098019900
S1131A4003B03CBC90469946A246AB46F0BDA342C7
S1131A50D6D900220023009201934346002BE8D0FC
S1131A60FB0772081A4346467B080EE0AB4201D1DD
S1131A70A2420CD8A41A9D41012024196D410021D1
S1131A80013E24184D41002E06D0AB42EED9013E52
S1131A9024196D41002EF8D15B4600980199001974
S1131AA06941002B22DB2B005A46D3402A004446CE
S1131AB0E2401C005B461500002B2CDB26009E40F8
S1131AC0330026004746BE403200801A99410090F8
S1131AD00191AEE7424620239B1A5246DA40414622
S1131AE013004A468A4017001F4382E742462023D8
S1131AF09B1A2A0046469A402300F3401343D5E735
S1131B004246202300219B1A0022009101920122C7
S1131B10DA40019282E74246202326009B1ADE40E7
S1131B202F00B446974066463B003343C9E7C0469E
S1131B30F0B557464546DE464E46E0B54C000E032A
S1131B4087B0834692461D008046360B640DCF0F46
S1131B50002C4FD06F4B9C4235D08023420F1B0486
S1131B60F600134333439946C30098466A4B002654
S1131B709C460023644403932B031B0B9B466B007E
S1131B80ED0F50465B0D01955ED0624A934253D0EF
S1131B905A46D1008022400F120402430A4393465E
S1131BA05246D1005C4A944600226344380068409F
S1131BB084460290E41A16430F2E00D9B4E0574B22
S1131BC0B6009B599F460300334399466CD10023CA
S1131BD09846023308260393CEE7CB464146039A40
S1131BE00197022A65D1019B4A4C9C46002300229E
S1131BF098466BE00300334399464ED0002E00D143
S1131C00BCE1300001F026FA03000B3B1C2B00DD85
S1131C10ACE11D22D31A5A460100DA4008398E403D
S1131C201300334399465B468B40984600233C4C53
S1131C300026241A03939FE751465A46114329D19B
S1131C40002293460232B1E7594601431ED05B4657
S1131C50002B00D19EE1584601F0FCF903000B3B38
S1131C601C2B00DD8FE102005946083A91408B4657
S1131C701D21CB1A5146D9400B0059460B435146FE
S1131C809B469140264B00221B1A8FE7002301221A
S1131C909B468BE75146032288E70023984601338D
S1131CA004260024039367E70323B14603930C2619
S1131CB062E7032A00D15CE2019B012A00D0E4E13F
S1131CC013409C460023002400229846002112035E
S1131CD0130B0A0D12051A432305124C40462240E9
S1131CE0134362465B00D2075B081343190007B035
S1131CF03CBC90469946A246AB46F0BD00238022E8
S1131D009C4612039846034CE0E70023014C002252
S1131D109846DBE7FF07000001FCFFFF4489000051
S1131D200DFCFFFFFFFF0F80D94500D939E100D139
S1131D3034E1002346464D469A46013C5B460A0E72
S1131D401B021A430B02170C039313041B0C3900D8
S1131D50280090460193FFF795FC0200019B8346FF
S1131D605A43280039009146FFF712FD350C090447
S1131D700D43A9450DD95B464544013BA84500D90F
S1131D803AE1A94500D837E102235B429C46454429
S1131D90E3444B46EB1A390018000493FFF772FC36
S1131DA0019B05004343390004989946FFF7F0FC72
S1131DB0330409041B0C0B43994509D943446A1E97
S1131DC0984500D91AE1994500D817E1023D4344EA
S1131DD04A469B1A5A4612042A4303999346100C06
S1131DE00A0C914609045A46090C4E460D00120489
S1131DF0120C4543059151437243704352190E0C22
S1131E00B218954203D980256D02AC466044150C86
S1131E1009041204090C28185218834200D2CEE097
S1131E2000D1C8E01D1A53469E1AB245924152424F
S1131E30AB1A9A46984500D117E139001800FFF70C
S1131E4021FC019B05004343390050460493FFF7EE
S1131E509FFC04980B04310C1943884209D941446E
S1131E606B1E884500D907E1884200D804E1023D91
S1131E704144049BCB1A180039000493FFF702FC79
S1131E80019B82464343390004980193FFF780FC89
S1131E9001980B043104090C194388420DD95346A7
S1131EA04144013B884500D9E8E0884200D8E5E098
S1131EB002235B429C464144E244019B2D04CE1A1A
S1131EC051462943059D4F462A000B04080C1B0C60
S1131ED05A4345437B4378435B19170CFB189D42D7
S1131EE003D980256D02AC4660441D0C12041B040A
S1131EF0120C28189B18864200D293E000D18EE081
S1131F0001231943A04BE318002B00DC99E04A0796
S1131F1000D09EE05A46D20106D55A469B4B1A4041
S1131F2080239346DB00E318994A934268DD01233A
S1131F30029A984C1A400023944698460022C5E61B
S1131F4080224B46120313420AD05B46134206D149
S1131F501A431203120BAC4688468E4CB6E64B4627
S1131F601A431203120BBC468A4CAFE603005A46CE
S1131F70283B9A4000239146984657E6584601F07C
S1131F8069F8203040E603005246283B9A4000217D
S1131F90934677E601F05EF820305FE6884500D28C
S1131FA0C7E64B46DE075D0843465B081E434346CF
S1131FB0DB079A46C2E60025924500D333E7039E29
S1131FC05946B446E244B245AD416D424544EB182E
S1131FD00139984507D2984200D97FE000D1BCE08E
S1131FE01D1A8B461FE79845FAD1039D5545F2D932
S1131FF043468B461D1A16E79B46CAE61500E7E6DC
S11320005A46C90852070A435B0590465C0D5A4676
S11320100123029952021940120B8C4656E6002BFA
S113202000D16FE746444A1EB04529D911008642C3
S113203000D065E7039A934200D061E762E701218B
S113204049420120C21A382A21DD029B03409C46E2
S113205038E60F220A40042A00D15BE70A00111D6A
S1132060914292415242934454E7474BE318002B68
S1132070E5DD01225242F2E71D00FAE69A461CE72A
S1132080B04239D86ED011003AE702933AE71F2ADA
S11320903CDC20239B1A0C005846994098404B1E68
S11320A099415B46D440D340204308431A00430778
S11320B009D00F230340042B05D00100081D8842DA
S11320C09B415B42D21813023AD50123029A0124A0
S11320D01A400023944698460022F7E5022149421B
S11320E08C46039DE344AC46E244AA45AD416D42AF
S11320F04544ED182D1A96E68A1E03994D008D422B
S1132100894149424144761803958FE71F20404294
S1132110C31A5846D8400300202A28D040205D46E0
S1132120821A954029434A1E9141194307230022EC
S11321300B4009D00F2300220B400800042BBDD113
S1132140010053075202120BC908194301238846A0
S11321500299002419408C46B8E55245BED88B46F6
S1132160002560E6039D9D42C6D3110062E7002569
S1132170D8E780225B4612031A43019B1203120B19
S11321809C468846034CA1E5FF030000FFFFFFFEC9
S1132190FE070000FF070000F0B557464546DE463F
S11321A04E46E0B50C0398464E00230B87B007005B
S11321B092469B46760DCD0F002E6BD06D4B9E4202
S11321C035D080245B46420F2404DB0014431C43B7
S11321D0C3009946684BA3469C46002300276644E7
S11321E0029343461C035A00DB0F5046240B520D46
S11321F0984600D176E05F4B9A426DD08023410F20
S11322001B040B435C49E4008C461C43C3000020C0
S113221062444146B6186940721C019194460743D2
S11322200F2F00D9B0E0554ABF00D25997465B46FC
S11322300343994600D087E000239B4602330827D6
S11322400293CEE742460192022867D0032800D1C8
S11322500EE2012800D062E1002300240022994606
S113226001990140CDB2002112030B0D120B1B0585
S11322701343434A240513401C436400ED076408D8
S11322802C434846210007B03CBC90469946A246E0
S1132290AB46F0BD034399464FD05B46002B00D1BB
S11322A089E1584600F0D6FE03000B3B1C2B00DDF1
S11322B07AE11D22D31A3A0001005C46DA4008395B
S11322C08C4013008F4023439B46B94600232D4E78
S11322D00027361A029384E7534623432AD1002465
S11322E0022096E75346234320D0002C00D157E127
S11322F0200000F0AFFE03000B3B1C2B00DD49E186
S11323001D21CB1A51460200D9405346083A944045
S113231093400C431B4A121A00207AE70125019BC3
S1132320144C1D400023002299469CE700240022FF
S113233001206EE7534603206BE700239B460133DD
S11323400427002602934CE7032381460C270293BB
S113235047E780220023002512039946054C82E7B3
S11323605C464B4602986FE75C464B4601950298E3
S11323706AE7C046FF07000001FCFFFF84890000F4
S1132380FFFF0F800DFCFFFF4A464946170C1A0C4D
S11323901B041B0C08041900000C4143150088465B
S11323A019007D4379430395894629001500454367
S11323B04D44029545462D0CAA46029D5544A94517
S11323C006D98A46802149028946CA445146039166
S11323D0290C0491414609042D04090C884629005E
S11323E0250C24044144240C0591210041438846D2
S11323F0210079438A466843414650448146080C8B
S113240048446F43824503D98021490289464F4499
S1132410010C894639004944029141460F0404994C
S11324203F0C88460004C019804441460491594633
S11324300F0C0904090C884659438A463900514354
S1132440894641464A435146090C8B467B43D21880
S11324505A44934203D980235B029B46D944514694
S11324600904090C8A46414661437C43130C120457
S11324704B445244A1468A463C0041466C434D437A
S113248051464D440F0C7D19A94503D980214902B9
S113249088464444049F0399B84641448B46834587
S11324A0804141428846514608042F04000C3F18DD
S11324B05846029910188946904292414F44BA46B0
S11324C0524299469346C244D144CB448F42BF41C1
S11324D0C245894199459B41934592417F42494276
S11324E02D0C52420F435B4213437F19FF185B4686
S11324F03C19DB0D059A64021C43430213435D1E21
S1132500AB415A46C00D034352021343E20156D570
S113251001205A0803401343E207134364085A484E
S1132520604400284DDD5A0709D00F221A40042ABE
S113253005D01A1D9A429B415B42E4181300E20144
S113254004D58020514AC00014406044504A90424F
S113255000DDE3E60125DB0862071A436402019B00
S11325609146220B4405640D1D407CE680225946A9
S11325701203114208D0144206D122431203120B53
S113258045469946434C6EE65B461A431203120BCA
S1132590404C68E603005446283B9C400023B9E6BF
S11325A000F058FD2030A6E60300283B9F4000239E
S11325B0BB4699468AE600F04DFD203074E6B446E9
S11325C0ADE701252A1A382A06DD019B00241D40A7
S11325D000230022994646E61F2A21DC20252000FC
S11325E0AD1A1E00AB40A840D6405D1EAB4130433F
S11325F01843D440430709D00F230340042B05D0CC
S11326000300181D98429B415B42E418230221D524
S11326100125019B01241D4000230022994622E646
S11326201F2521006D42281AC1400800202A1DD010
S11326305F35AA1A944023435C1EA3410725034334
S11326401D400022002D09D00F2200241A4018003A
S1132650042AD6D1030065076402220BDB082B434E
S113266001259946019B00241D40FCE50024E2E776
S1132670802201251203224301991203120B0D40FB
S11326809946044CEFE5C046FF030000FFFFFFFE40
S1132690FE070000FF070000F0B54646D6464F4649
S11326A00C03C0B5CD0F4E00610A440F0C43C100AA
S11326B05800400D84468A460F001903500F490AFA
S11326C00143C648760DA846DB0FD200844500D1ED
S11326D0D8E001204340AB4200D1A6E06046351A61
S11326E0002D00DC05E1002810D10B00134300D1BC
S11326F0D7E06B1E002B00D04BE153469F1ABA451E
S11327008041641A4042241A01261EE0B34B9E42C3
S113271048D080231B041943382D00DD19E11F2DF7
S113272000DD4CE120230F005B1B10009A409F400A
S1132730E840531E9A41E940074317435346DF1BC1
S1132740611ABA45A44164420C1B230200D4C5E0BB
S11327506402650A002D00D1F6E0280000F07AFC3E
S11327600300083B1F2B00DDE9E020223C00D21AC5
S11327709D40D4409F4025439E4200DDDBE09E1BEC
S1132780731C1F2B00DD0AE120223800D21A290015
S113279097402C009140D8407A1E9741DC40002697
S11327A001430F437B0709D00F233B40042B05D083
S11327B03B1DBB42BF417F42E4191F00230225D5C4
S11327C0864B01369E4200D1AFE0854B01251C406B
S11327D043466207FF08640276051743240B760D0F
S11327E01D4000212403230B0C0D7E4A24051C43A9
S11327F01440330523435B00ED075B082B4338008B
S113280019001CBC90469946A246F0BD01254346DA
S11328106207FF081743E4081D40704B9E4236D000
S113282024037605240B760DDBE76346F31A002BAD
S113283000DC94E06046002835D068488642B1D078
S113284080273F043943382B00DCFDE00A4317009E
S113285000217A1E97415744574580410919444243
S11328600C1923023AD55D4B01369E4200D14BE14F
S113287001225B4B1C407B0817401F43E2071743B0
S113288064088FE70800104300D024E721E7230001
S11328903B4300D1B9E18022120314432403240BE7
S11328A09FE72E007EE70800104300D1CAE0581EBF
S11328B08446002800D0E7E0524452458041641821
S11328C04042241817000126230207D50226CFE729
S11328D064462C4300D1B3E12C0067467B0700D04B
S11328E062E76307FF081F4301254346E4081D40D0
S11328F093E7002D78D1751C6D056D0D012D00DC5D
S1132900F2E05046801A8245BF41651A7F42ED1BB2
S11329108446280200D48CE05046171ABA429241E9
S11329200C1B5542651B984614E7012543460024B9
S11329301D40002755E72A4CF61A2C4032E73D008B
S113294028388540002717E7380000F083FB203043
S113295006E70A43170000217A1E9741EEE6002B92
S113296000D0E5E0731C9C465B055B0D012B00DC8D
S11329709FE01A4B9C4500D1C5E05244524580412A
S1132980641840422418E70752081743640866464F
S113299008E71248854200D185E01D00BCE6290005
S11329A01F3EF140202B00D17FE04022D31A9D40EE
S11329B02F437D1EAF4100240F4300268EE72B00DA
S11329C00F00203BDF40202D71D040235D1BA94028
S11329D00A43511E8A4100211743AFE6FF07000056
S11329E0FFFF7FFFFFFF0F80002E3ED0B34EB445A4
S11329F045D0802636046D423443382D00DDA8E0EE
S1132A001F2D00DD1FE1202627005046761BB7400E
S1132A10E84007435046B040461EB041EC403843BE
S1132A20171ABA4292410C1B5242A41A664698469F
S1132A308BE6644667462C4300D08BE600250026CF
S1132A400027EAE61E00ADE61F2B60DC2027F81AFB
S1132A500F00844687401000D840074360468240F8
S1132A60501E8241D9401743F5E6260050460643DE
S1132A7005D0ED43002DD3D0904EB445BDD10C000C
S1132A801700664698468DE68C4883420BD0634611
S1132A90D9E6002D00D096E00800104300D1E2E012
S1132AA00C0017009846854E7CE6002580E700213F
S1132AB08EE7230050460343002E00D0A8E0002BED
S1132AC000D1DEE00B00134300D16BE652445245C3
S1132AD080416418404224181700230200D4FDE604
S1132AE0774B66461C405DE6250050460543002EA4
S1132AF0CFD1002D4FD10C00144300D1A0E00C0025
S1132B00170098464EE666460024002785E61F0017
S1132B100800203FF8400700202B00D18EE0402021
S1132B20C31A99400A43511E8A410021174392E671
S1132B30002E14D126005046064362D0DB43002BFE
S1132B405CD187189742924164185242A418664691
S1132B5087E650462043441EA041002460E7574EB8
S1132B60B4454ED0802636045B423443382B00DD16
S1132B707FE01F2B00DD8BE0202627005046F61A4D
S1132B80B740D84007435046B040461EB0410743C3
S1132B90DC40BF18D6E70D00154300D102E65046CD
S1132BA0801A8245BF41651A7F42ED1B8446280284
S1132BB000D48DE65046171ABA4292410C1B524279
S1132BC0A41A9846EEE50D00154300D16BE7504674
S1132BD06707C00807438020E4080003044207D0C5
S1132BE0CD08054204D12C009846D70849070F4365
S1132BF07B0FE4001C43FF00304ED3E52F4EB44559
S1132C00B4D10C0017006646CCE500270024E8E5A3
S1132C10002B39D00B00134300D144E7C0086707E9
S1132C2007438020E40800030442E1D0CB080342B8
S1132C30DED1D70849070F431C00D9E7002171E70B
S1132C4000250027E9E52E002700203EF740202D2F
S1132C502FD04026751BAC4050462043441EA04153
S1132C6000243843DCE6802400252403134E002787
S1132C70D3E5504620430700781E87410024BF183F
S1132C8060E70C0017008DE50C0017000B4E89E57A
S1132C901E002700203EF740202B0CD04026F31ABC
S1132CA09C4050462043441EA04107430024BF18C3
S1132CB048E70024D0E70024F3E7C046FF070000FC
S1132CC0FFFF7FFF30B5134D0A034B00120B5B0D62
S1132CD0C90F0024AB4210DD0F4CA3420FDC80244B
S1132CE00E4D64032243ED1A1F2D0BDD0C48C31A4D
S1132CF0DA405442002900D11400200030BD094BB1
S1132D00CC18FAE7084CE840A44663449A400243CE
S1132D10EFE7C046FE0300001D040000330400007A
S1132D2013040000FFFFFF7FEDFBFFFF70B50028D9
S1132D3030D0C317C4185C40C50F200000F08AF9D6
S1132D40174B184A1B1AD21A1F2A18DD164AD21A10
S1132D509440002224035B05240B5B0D002110002A
S1132D6024030A0D240B12052243104C1B05224098
S1132D7013435B00ED075B082B43190070BD210072
S1132D8091400A000B21081AC4405B052403240B5C
S1132D905B0DE3E70025002300240022DEE7C046A4
S1132DA01E0400003304000013040000FFFF0F8022
S1132DB010B5041E28D000F04DF9154B154A1B1A06
S1132DC0D21A1F2A15DD144AD21A94400022240371
S1132DD05B05240B5B0D0021100024030A0D240B5A
S1132DE0120522430D4C1B05224013435B00590876
S1132DF010BD210091400A000B21081AC4405B0554
S1132E002403240B5B0DE6E7002300240022E2E701
S1132E101E0400003304000013040000FFFF0F80B1
S1132E204100090E4B1C70B5DBB24602750AC40F93
S1132E30012B14DDE0239B006D07360BCB1800211A
S1132E400A0D280012051C4D32435B052A405B081D
S1132E5013435B00E4075B082343190070BD00299A
S1132E6014D1002D1ED0280000F0F4F80A281CDC30
S1132E700B232A001B1ADA40030015339D400F4B25
S1132E8012031B1A5B05160B5B0DD8E7002D06D049
S1132E90320B802636036D071643094BCFE7084BE8
S1132EA00026CCE700230026C9E703002A000B3BD9
S1132EB09A400025E3E7C046FFFF0F808903000026
S1132EC0FF070000F0B54C00640D0B03621C450FB6
S1132ED05B0A52052B43C90FC500520D012A28DD98
S1132EE03A4AA618FE2E1BDC002E3EDD80010200AD
S1132EF0501E82416D0F2A43DB0013435A0704D04E
S1132F000F221A40042A00D004338022D2041A402B
S1132F105AD00136FF2E03D09B015B0AF4B201E0C4
S1132F20FF2400235802E405400AC907204308434C
S1132F30F0BD002C07D01D43F2D08020DB008004BC
S1132F400343FF26DAE72B4303D00523DB08FF2CDA
S1132F5003D05B025B0AE4B2E4E7002B32D08020AA
S1132F60C00303435B025B0ADCE73200173214DB65
S1132F7080221E2712041343BF1B1F2F0FDC144A89
S1132F80944664442A00A5402E00A340751EAE4119
S1132F90FA40334313430026B0E70024D5E7022266
S1132FA05242961B1A00F240202F09D00948844649
S1132FB06444A3402B435D1EAB41002613439DE7AD
S1132FC00023F7E70023ADE73400BFE780FCFFFFF1
S1132FD082FCFFFFA2FCFFFF8446101C62468C4665
S1132FE0191C634600E0C0461FB500F0FBF800283A
S1132FF001D40021C8421FBD10B500F055F840426D
S1133000013010BD10B500F0EDF8002801DB002000
S113301010BD012010BDC04610B500F0E3F8002833
S113302001DD002010BD012010BDC04610B500F028
S113303075F8002801DC002010BD012010BDC04639
S113304010B500F06BF8002801DA002010BD012053
S113305010BDC0461C2101231B04984201D3000C5F
S113306010391B0A984201D3000A08391B099842F7
S113307001D30009043902A2105C40187047C0460D
S1133080040302020101010100000000000000002D
S113309010B5002903D1FFF7DDFF203002E0081C42
S11330A0FFF7D8FF10BDC046F0B54F464646D6469A
S11330B05C00C0B51F03DB0F9A46174B0E034D008F
S11330C084468046360B6D0DC90F91463F0B640D47
S11330D001209D4208D09C4201D0A5420BD01CBCCB
S11330E090469946A246F0BD63463343F7D1AC42BD
S11330F0F5D13A43F3D10120BE42F0D1C845EED117
S1133100514507D0002DEAD163461E433000461EC8
S1133110B041E4E70020E2E7FF070000F0B54546D0
S1133120DE4657464E46E0B51F033D0B2C4F0E03BB
S11331304C00AB465D008446360B640DC90F9046C7
S11331406D0DDB0FBC422AD0254FBD422DD0002C83
S11331500FD130430700814678427841C0B2002D38
S113316017D15F463A4314D14B460020002B0AD0B6
S113317006E0002D02D15846024301D0994218D0EE
S11331804842012108433CBC90469946A246AB46BE
S1133190F0BD0028F2D00120013B1843F3E73700CB
S11331A00743D1D002204042EDE75F461743CED01B
S11331B0F8E7AC42E4DC03DA481E01210843E2E705
S11331C05E45DDD806D000205E45DCD20123481ED2
S11331D01843D8E7C445D3D80020C445F6D3D2E772
S11331E0FF070000F0B54E464546DE4657465C00F4
S11331F0E0B51F03DB0F99462A4B0E034D00C90FA0
S11332008446360B6D0D8B4690463F0B640D9D42F4
S113321020D0244B9C4222D0002D12D13043434273
S11332204341DBB2002C1FD0002B0CD04B460120B5
S1133230013B034318003CBC90469946A246AB466A
S1133240F0BD002C16D0CB4517D05B465942012364
S11332500B43EFE7310002230143EBD1D9E73900F7
S113326002231143E6D1D7E73A43DDD100230028F6
S1133270E0D0EAE73A43E6D1E7E7A542E5DC05DB3F
S1133280BE42E2D807D00023BE42D3D2594601231E
S113329001390B43CEE7C445D7D80023C445F5D341
S11332A0C8E7C046FF07000070B50D4E0D4D002461
S11332B0AD1BAD1005D0A300F35801349847A542C7
S11332C0F9D105F075FD084E084D0024AD1BAD1075
S11332D005D0A300F35801349847A542F9D170BD35
S11332E0BC8D0000BC8D0000BC8D0000C48D0000AE
S11332F0F0B5830743D0541E002A3FD0CEB202005B
S1133300032502E01A00013C38D3531C16702B42EB
S1133310F8D1032C2AD9FF220A40150215432A04A6
S113332015430F2C14D927001A00103F3E0901360B
S113333036019E19156055609560D560103296422D
S1133340F8D10F2297431037DB191440032C0DD901
S11333501A00271FBE080136B6009E1920C2B242C9
S1133360FCD1032297430437DB191440002C05D009
S1133370C9B21C19197001339C42FBD1F0BD140071
S11333800300C6E70FB400B5064983B004AB086870
S113339004CB8168019300F06DF903B008BC04B05C
S11333A01847C0460000002030B5040089B008006A
S11333B00D0000F02DF904AB214A0193022306927B
S11333C001220293A36B05900130049507920390A8
S11333D0A568002B2FD06B6EDB0724D40C23EA5E88
S11333E091B28B051CD580239B01194205D113434F
S11333F0AB816A6E134B13406B66200001AA29004F
S113340003F05EF8441EA04144420A206B6E04435C
S1133410DB0702D4AB899B0509D5200009B030BD78
S1133420A86D03F007FA0C23EA5E91B2DBE7A86DFE
S113343003F002FAF1E7200002F0BAFECBE7C0463F
S113344040890000FFDFFFFF10B5034B010018683F
S1133450FFF7AAFF10BDC046000000204A424A41BF
S1133460802310B55200DB0000F002F810BDC04606
S1133470F0B54746CE4680B51F00634B83B01D6848
S1133480040088461600002D02D0AB6B002B66D0DA
S1133490022E05D0012E00D9A1E0002F00DA9EE013
S11334A0636EDB0733D52100280002F027FE216B71
S11334B0002908D023004033994202D0280002F0AA
S11334C021FF002323630023A36163600C22A35E16
S11334D01A063DD44D4A1340A381022E1ED001ABDF
S11334E06A462100280003F0A9F9A3891843A081A2
S11334F0002F38D1009F380003F018FA80460028C6
S113350000D16FE08022A3891343A3812EE0A38915
S11335109B05C8D4A06D03F08DF9C4E700250222F1
S113352013430022A260220043322260226101225E
S1133530616EA3816261114204D19B0502D4A06D26
S113354003F07AF9280003B00CBC90469946F0BD0C
S11335502169280002F0D6FE0C22A35EBAE72800F7
S113356002F026FE94E74346002BC4D0AB6B002B3D
S113357027D0009B9F422AD08023A2891B0113439A
S11335801BB2A381012E26D042462260226108226A
S11335909BB267611A400BD0DA0710D500220125CF
S11335A0A260626E7F42A7611540C6D00025C9E7BC
S11335B0A2600125626E1540BFD00025C2E7A76056
S11335C0F7E7280002F0F4FD009B9F42D4D10C22BF
S11335D0A35E012ED8D101221343A381D4E7012590
S11335E06D42AFE7009B9946BB4205D0180003F03B
S11335F09DF98046002804D101250C22A35E6D426A
S11336008DE74F467EE7C046000000205CF3FFFFD5
S113361010B5830725D00378002B24D003000321A1
S113362002E01A78002A1AD001330B42F9D1196842
S11336300E4A0F4C8A188A43224206D10433196871
S11336400A4A8A188A432242F8D01A001B78002BAF
S113365003D0013211780029FBD1101A10BD181AB9
S1133660FCE70300E3E70020F8E7C046FFFEFEFEA8
S113367080808080F0B5DE464E4645465746E0B52C
S1133680C3B0894614001D000F930600069003F092
S1133690BFF8036818001893FFF7BAFF1790002EBD
S11336A004D0B36B0793002B00D1A7E04B465B6EAD
S11336B0DB0778D44B460C21595E8BB29A056ED544
S11336C080229201134209D10A434B4649469A810A
S11336D0496ECC4B0B4049464B6693B21A0767D5EB
S11336E04A461269002A63D01A221A400A2A00D1D3
S11336F088E032AB25930023CB4625AFBB607B60CB
S1133700079414931693159332AE19931A930A934C
S1133710079C2378002B01D100F09EFD252B03D1BB
S113372000F09AFD252B03D001342378002BF9D126
S1133730079BE51A10D0079B75603360BB685B1963
S1133740BB607B6801337B60072B4CDC08360A9B2B
S11337509C46AC4463460A932378002B01D100F0C5
S113376099FC631C0793002316AAD37701225242C3
S1133770924600220B922032914620326378002137
S1133780002000249446079A013207921A00203A36
S1133790582A00D9E7E29C4D9200AA5897464B4616
S11337A0986D03F047F84B460C21595E8BB287E7BE
S11337B04946069801F00EFB4B4600283AD05B6E52
S11337C0DB0705D44B469B899B0501D400F0CFFF52
S11337D001235B420A930A9843B03CBC9046994645
S11337E0A246AB46F0BD3A005946069804F0E6F905
S11337F0002801D000F0CEFC32AEA8E7069802F013
S1133800D7FC53E74A460E21525E002A00DA70E7DD
S11338104A46526ED20705D49B0503D44B46986D95
S113382003F00AF82B0022004946069801F08EFAAC
S11338300A90D0E79B8957E70B9B0F925B420B934F
S113384004231C43079B1B789DE7079B01211B78DE
S11338502B2098E7079B5A1C1B7890462A2B01D1F2
S113386001F038FA1A000025303AAA46092A01D98B
S113387001F06DF925004346544688468246A1006E
S11338800C1918786400A4180200591C303A0B0073
S1133890092AF4D90791030041465046A2462C0058
S11338A074E71293002901D001F02EFA574B1993B3
S11338B0A30601D500F09AFEE30601D500F09AFDB7
S11338C0630601D400F096FD0F9B1A880C92002227
S11338D004330D920F93E30701D400F076FD0C99A5
S11338E00D9A0B0013431A000223002A08D030203B
S11338F01EA9087048256846401900781C43487082
S11339000021884616A8C1775146013100D1E6E06E
S11339108021200088430990002A00D0E3E0524629
S1133920002A01D000F038FC002B01D000F00CFD7F
S1133930012032AB20400E90119308D02723302170
S113394028AAD15416AA9446483363441193534683
S11339500E9A0893924500DA089200231393434683
S1133960002B02D0089B013308930223099A1A40C2
S1133970914602D0089B023308938423099A1A4083
S1133980109200D007E20B9B089A9C1A002C00DCD2
S113399001E21F49BA687B688846102C21DD31009A
S11339A010255E4603E0103C0831102C17DD40461C
S11339B01032013308604D60BA607B60072BF2DD82
S11339C03A003100069804F0F9F8002801D000F01C
S11339D0CFFC103CBA687B6832A9102CE7DCB346F4
S11339E00E00414674600133A4183160BC607B60F2
S11339F0072B01DD00F0AEFC16ABDB7F08369846E2
S1133A00CAE1C046FFDFFFFFC8890000508B0000F9
S1133A10708B00000022079D303BA8460B921A00D1
S1133A2008942C00554682464046884611000022E0
S1133A3093009A18037852008A1819000134303917
S1133A4020000929F4D907945046089C0B9241465A
S1133A50AA469BE60F9A12931368202108936B469B
S1133A605B181B7828AD2B70002316A9CB771300A5
S1133A7004330F93002309949846013308930E935B
S1133A80002311959A4613936FE71293002901D0EE
S1133A9001F04DF90F9AA30601D500F05AFDE30693
S1133AA001D500F0ABFC630601D400F0A7FC0021B3
S1133AB0535E0C930432DB170D930F92002B01DA43
S1133AC000F0B2FD0C990D9A0800514616ABDB7F4D
S1133AD01043984602000123013100D018E7002A60
S1133AE000D15AE30994012B01D100F006FC022B0A
S1133AF000D080E3199C0F20A146B44632AB1900D4
S1133B000C9A0D9B04004D4614402C5D1E071509AC
S1133B1001392E430C701C092300340032001C436D
S1133B20F0D10C920D9332AB5B1A119166460E9351
S1133B300DE763461C43079B1B7824E6079B1B7811
S1133B406C2B01D100F08CFE102214431BE60029DB
S1133B5001D001F0D5F8A30601D500F076FEE30606
S1133B6000D510E1630600D40DE169460F9B098D71
S1133B701A680433089211800F93C9E50F99302213
S1133B800B680C9300230D9302331C431EAB1A7075
S1133B9048325A700B0004330F93C14B129219939D
S1133BA00C9A0223ACE64B461C43079B1B78EAE5C0
S1133BB012930F9B16A91D1D1B681A001193002355
S1133BC0CB77002A01D100F001FF5346013301D124
S1133BD000F064FE52460021119803F065F90028B4
S1133BE001D100F078FF119BC31A1A000E93DB4336
S1133BF0DB171A4016ABDB7F0892984600230F951B
S1133C0009949A461393AAE608231C43079B1B783E
S1133C10B9E5129310231C43A30601D500F0A7FCB9
S1133C20E30600D5EEE3630600D4EBE30F9B1A88AA
S1133C300C92002204330D920F930C9A00235FE63A
S1133C40129310231C43A30601D500F0BAFCE3062B
S1133C5000D5DAE3630600D4D7E30F9B1A880C92ED
S1133C60002204330D920F930C9A012348E6129319
S1133C70002901D001F057F88A4B199318E6012363
S1133C801C43079B1B787EE580231C43079B1B7802
S1133C9079E5079B1B78002800D074E501212030CA
S1133CA071E51293002901D001F039F807220F9B26
S1133CB007339343013294469C4462460F921A6838
S1133CC016925B6801221593159B169D5B005B0899
S1133CD098465242744B2800414604F03FFD0028A8
S1133CE001D000F0B4FC01226F4B5242280041463F
S1133CF0FFF792F9002801D000F0A9FC002200236C
S1133D0016981599FFF77EF9002801D000F055FDAB
S1133D1016ABDB7F9846129B472B01DD00F0B4FD08
S1133D20624B119380239C437D3B08930E930023A5
S1133D3009949A46139312E60F9B1A1D1B680B9362
S1133D40002B00DA78E5079B0F921B781BE5129392
S1133D50002901D000F0CCFF10231C439AE61293F3
S1133D6071E7129358E71293002901D000F0D3FFB2
S1133D70129B002B00D18DE128AD2B70002316AAD5
S1133D80D377099478E60F9A0A9913681960130097
S1133D9004330F93BCE4BC684346002B0FD016AA2F
S1133DA01F23944663443360012373607B680134AA
S1133DB00133BC607B60072B00DD03E208364B4611
S1133DC0002B0CD01EAB3360022373607B6802347B
S1133DD00133BC607B60072B00DDFDE10836109BDE
S1133DE0802B00D173E153460E9A9D1A002D32DDCB
S1133DF02F4A7B689146102D22DD10229246220024
S1133E005C4603E0103D0836102D17DD494631604D
S1133E105146103201337160BA607B60072BF1DDCB
S1133E203A002100069803F0C9FE002800D08AE178
S1133E30103DBA687B6832AE102DE7DCA34614004F
S1133E404A466419013332607560BC607B60072B9D
S1133E5000DDADE10836099BDB0500D5BEE0119B12
S1133E6033600E9B9C4673607B6864440133BC6082
S1133E707B60072B00DDA6E00836099B5B074AD56B
S1133E800B9B089A9D1A002D45DD0A4A7B689046D3
S1133E90102D2FDD1022914622005C4610E0C04612
S1133EA0508B00003C8B0000FFFFEF7F2C8B000049
S1133EB0808B0000708B0000103D0836102D17DD3C
S1133EC0D14910323160494601337160BA607B6078
S1133ED0072BF1DD3A002100069803F06FFE00285D
S1133EE000D030E1103DBA687B6832AE102DE7DCBB
S1133EF0A346140042466419013324C6BC607B60A7
S1133F00072B08DD3A005946069803F057FE0028AF
S1133F1000D03FE1BC680B9B08998B4200DA0B0090
S1133F200A9A94469C4463460A93002C00D029E1E3
S1133F30002332AE7B60FFF7EBFB149B012B00DC0C
S1133F4003E1119B01343360012373607B68BC601F
S1133F5001337B60072B00DDEFE20836189A01334A
S1133F603260179A9846944664447260BC607B60E1
S1133F70072B00DD18E30836002200231698159954
S1133F80FFF73AF8002800D0F4E1119D149B0135A5
S1133F90013B35607360E41801239C46E0444346CA
S1133FA0BC607B60072B00DDE0E0083621AB3360AA
S1133FB01A9B9C467360434664440133BC607B6037
S1133FC0072B00DC58E73A005946069803F0F6FD43
S1133FD0002800D0DEE0BC6832AE4EE7129B652BB1
S1133FE0ABDD0022002316981599FFF705F8002889
S1133FF000D134E1854B01343360012373607B6865
S1134000BC6001337B60072B00DDDCE308361F9BBB
S1134010149A934203DB099BDB0700D4B7E3189B94
S1134020BA683360179B9C4673607B6862440133B3
S11340301400BA607B60072B01DD00F019FC083620
S1134040149B5D1E002D00DC17E7714A7B689146C6
S1134050102D00DCC3E11022904622004C46D946C4
S113406004E00836103D102D00DC7CE3414610329C
S1134070013334607160BA607B60072BF1DD3A0074
S11340804946069803F09AFD00280BD1BA687B686C
S113409032AEE7E7BB68D946002B01D000F04CFDF7
S11340A000237B604B465B6EDB070DD44B469B893C
S11340B09A0505D55B0601D4FFF78DFBFFF788FB56
S11340C04B46986D02F0B8FB4B469B89F2E70B9B7D
S11340D0089A9D1A002D00DC85E64D4A7B689146BE
S11340E0102D24DD1022210090465C4632004E46FD
S11340F003E0103D0832102D15DD40461031013328
S113410016605060B9607B60072BF2DD3A00210035
S1134110069803F053FD002815D1103DB9687B685B
S113412032AA102DE9DCA346B1460C0016004A461B
S11341306419013332607560BC607B60072B00DD5D
S113414063E208364FE6A146ACE70123099A13421D
S113415000D0F6E673607B68119A01330134326053
S1134160BC6098467B60072B00DC1EE73A0059468A
S1134170069803F023FD00280CD17B68BC689846A0
S113418032AE13E73A005946069803F017FD0028AB
S113419000D1CDE6D94685E7099C012B00D148E141
S11341A0022B23D10994002300240C930D94A1E441
S11341B03A005946069803F001FD0028EAD1BC688C
S11341C032AE48E63A005946069803F0F7FC002858
S11341D0E0D1BC6832AEF2E53A005946069803F0E5
S11341E0EDFC0028D6D1BC6832AEF8E50994002372
S11341F000240C930D940C980D99534632AA9146C1
S11342000893B24607E0C046708B00006C8B000038
S1134210808B0000A1464A0794464B4665465C1EC7
S1134220C6080723CA08354311002A000340303367
S1134230237028000A43EDD10C900D91089956463D
S11342408A4609994A461194C90700D5E0E032AB81
S11342501B1B0E93FFF77BFB079CFFF77DFA1F9850
S1134260002800DCB9E2139A1499130090468B429B
S113427000DD88464346002B0CDD119B444433602B
S1134280434673607B68BC6001337B60072B00DDB1
S113429089E308364346DB434246DB171340139A4F
S11342A0D31A9846002B00DCEBE0102B01DC00F065
S11342B0D9FCDC4A7B68914610224D469246220086
S11342C04446D84604E00836103C102C00DCBFE01D
S11342D051461032013335607160BA607B60072B40
S11342E0F1DD3A004146069803F068FC002800D04E
S11342F0B6E3BA687B6832AEE6E70D9B002B00D1CB
S113430092E00C9C0D9D32ABB1461E0020002900AA
S11343100A220023FDF72CFB013E303232700023C9
S1134320200029000A22FDF723FB030004000D00EE
S11343300B43EBD1320032AB9B1A11960C940D95C2
S11343404E460E93FFF703FB00230E9332AB1193FB
S1134350FFF7FDFA3A005946069803F02FFC0028AF
S113436000D017E716ABDB7FBC68984632AE13E586
S1134370B14697E6149B5D1E002D00DC16E6A94BA2
S11343809946102D00DC0AE1102322009A465C466F
S1134390434604E00836103D102D00DCFCE049469D
S11343A031605146103201337160BA607B60072B73
S11343B0F0DD3A002100069803F000FC002800D04C
S11343C0C1E6BA687B6832AEE5E70C990D9A08003D
S11343D0104302230200FFF793FAA34614004A464F
S11343E06419013332607560BC607B60072B00DCAC
S11343F042E5E8E50F9B1A68FFF768FA136808932B
S1134400FFF757FB0F9B1A6812E40F9B1A6826E408
S1134410302B00D13CE23023023A137032AB9B1AAA
S11344200E931192FFF793FA0C9B092B00D968E7BE
S1134430099C27220C9B28A930338B54012316AAEC
S113444094460E936E33634409941193FFF77FFAF5
S1134450C346A946A04614004A4632604246444434
S113446001337260BC607B60072B00DC8DE13A0095
S11344705946069803F0A2FB002800D08AE6BC68DF
S113448032AE1F9B149A934200DB79E1189A326092
S1134490179A944672607A6864440132BC607A6008
S11344A0072A00DD76E10836149A1399D31A521AB2
S11344B090469A4200DD98464246002A0FDD139941
S11344C0119A8C4662443260424672607A6844446F
S11344D00132BC607A60072A00DD89E20836424670
S11344E0D543ED1715405D1B002D00DCC5E44D4A96
S11344F07B689146102D00DC71E710229046220063
S11345005C4604E00836103D102D00DC65E74946A2
S113451031604146103201337160BA607B60072B11
S1134520F0DD3A002100069803F048FB002800D093
S113453009E6BA687B6832AEE5E73A005946069860
S113454003F03CFB002800D024E6BC687B6832AE54
S113455004E5072307329A4301339C469444634697
S11345600F93536812680D930C92FFF7A7FA072272
S11345700F9B07339343013294469C4462460F9247
S11345801A685B6811001A00080010430C910D9220
S113459000230200FFF7B4F9A346984614004B46E3
S11345A0756033606419F7E43A005946069803F0DD
S11345B005FB002800D0EDE57B68BC68984632AE68
S11345C0DAE407220F9B07339343013294469C4459
S11345D062460F921A685B6811001A0008001043C3
S11345E00C910D9201230200FFF78AF907220F9B19
S11345F007339343013294469C4462460F921A68EF
S11346005B680C920D93FFF766F93A0059460698D9
S113461003F0D4FA002800D0BCE5BC6832AEFFF742
S1134620E2FBC046808B00000C980D9900234242A7
S11346308B4111001A002D2316A8C37708001043DC
S11346400C910D92984602002C3BFFF75DF91699E8
S1134650159D0A0008002B00290004F07FF80028AB
S113466000D0C6E25346013300D19FE02023129AC2
S11346709A430E92472A00D1A1E180235B00234391
S11346800993159B002B00DAEDE1169A0893002399
S113469091461093129B662B00D1B8E1462B00D1B2
S11346A037E20E9A0698453A13005942594120AB15
S11346B00D0003931FAB0293022323AA55441B92BC
S11346C0049200930195089B4A4600F0ABFC129BB0
S11346D01190672B00D00BE2119B9846A844E30786
S11346E000D477E20023002248460899FEF784FCB0
S11346F0434600280AD1239B434507D23021404634
S11347005A1C23921970239B9842F9D8119A9B1A28
S113471014930E9B472B00D1D0E0129B652B00DC39
S1134720D5E2129B662B00D1C6E11F9B1393149B09
S1134730139A1900914200DDA0E1E30700D542E29B
S1134740D343DB1711001A40672308920E9112938A
S1134750109B002B00D0A9E016ABDB7F984600230A
S11347609A46FFF7FCF8CB46A146140037E64B46C1
S1134770986D02F061F801235B420A93FFF72BF86E
S1134780099AD20700D48FE680E6083679E6BC6839
S1134790FFF773FB3A005946069803F00FFA002816
S11347A000D0F7E41F9BBC6832AE7DE62023129A4A
S11347B09A431A3B0E929A465FE72D2316AAD377A3
S11347C09846FFF7A8FA3A005946069803F0F6F916
S11347D0002800D0DEE432AE19E4E34B0134336048
S11347E0012373607B68BC6001337B60072B00DDB1
S11347F055E10836002807D1149B002B04D1099BEE
S1134800DB0701D4FFF739FB189B3360179B191999
S113481073607B68B96001337B60072B00DDC4E102
S113482032000832002800DA95E111980133106053
S113483014987B6044185060BC60072B01DDFFF7BF
S1134840C2FB08321600FFF718FB0F990A9A0B688F
S11348501A60D2175A600B0004330F93FEF758FF07
S11348604B46079A1C43013213780792FEF78BFFDD
S11348703A005946069803F0A1F9002800D089E4CB
S1134880BC6832AEFFF7DCFBB84B1193FFF74AFA72
S1134890119A32AB9B1A0E93FFF759F81198FEF751
S11348A0B7FE02000E900300FFF7A1F92D2316AA0C
S11348B0D377984600239A46FFF754F81F9B139327
S11348C0DA1C02DB9A4500DB31E7129B023B1293B0
S11348D02C22139B48215D1E16AB9B186A46521866
S11348E012781F951A70002D00DACBE12D212B23AD
S11348F016AA52181370092D00DC6DE116AA3B2389
S1134900944663449A46B146A046564600E02600C3
S113491028000A21FDF726F8741E30312170280082
S11349200A21FCF739FF05000928F0DC230044467E
S1134930B0464E46994603003033D8B24346023B54
S113494018709A4500D8F6E142461B9B4546991AD1
S1134950012307315B4201E0E85C013321AAD2184C
S1134960D0708B42F8D116A98C462E224B46624455
S11349709446FB1A634421AA14999B1A9C460A0084
S113498062441A930E92012900DC70E1179A0E9B7F
S1134990944663441A000E93DB43DB171A4000234A
S11349A008921393D4E63A005946069803F006F9A0
S11349B0002801D0FFF7EEFBBC6832AE6AE4534630
S11349C0002B00D059E601339A4656E65346089325
S11349D0062B01D906230893089B0F950E930023F9
S11349E098469A461393624B09941193FEF7BDFFC0
S11349F03A005946069803F0E1F8002801D0FFF781
S1134A00C9FB149B1F9ABC689B1A32AE67E523ABA3
S1134A101B93049320AB03931FAB02935346019360
S1134A2003234A4600930698089B00F0FBFA030010
S1134A305344984655461190119B1B78302B02D055
S1134A401F9B98444EE60022002348460899FEF72F
S1134A50D3FA0028F4D101235B1B1F93984441E649
S1134A60C146FFF71FFB802212069446169B994607
S1134A70159B634408932D2310930BE6179A149BFC
S1134A809446139A63440E93002A00DCE3E01A0070
S1134A90DB43DB171A4067230892129358E63A0067
S1134AA05946069803F08AF8002801D0FFF772FBF4
S1134AB01F98BC6832AE9DE61F9B1393002B00DC4D
S1134AC0F2E05246002A00D0A0E0E20700D59DE0C3
S1134AD008930E933CE616ABDB7F0F95984653463E
S1134AE008930E93002309949A461393FEF737FF15
S1134AF0119B9846129BA844472B00D0F2E5E3078C
S1134B0000D4DCE0119B9846129BA844462B93D01A
S1134B10E8E523AB1B93049320AB03931FAB0293F1
S1134B205346019303234A4600930698089B00F0DA
S1134B3079FA55461190E5E73A005946069803F08C
S1134B403DF8002801D1FFF7ABFAFFF7ABFA424674
S1134B500792FEF71BFE4442103000DBD8E0054804
S1134B60102605000CE0C0466C8B0000308B000062
S1134B70648B0000808B00000832103C102C51DD47
S1134B801031013315605660B9607B60072BF3DD8B
S1134B903A005946069803F011F8002801D0FFF7AF
S1134BA0F9FAB9687B6832AAE7E73A0059460698E9
S1134BB003F004F8002801D0FFF7ECFA1F98B96855
S1134BC07B6832AA2EE6179A139B944663441A0014
S1134BD00E935DE7239B99E52E21302316AA5218E4
S1134BE013702B0016AA013130335218137022AB04
S1134BF0C1E6159B002B52DB16ABDB7F9846129B5C
S1134C00472B48DC4E4B1193FFF78CF8179A139BF4
S1134C109446634453441A000E93DB43DB171A4053
S1134C20089295E5A9464846091901331060546075
S1134C30B96008327B60072B00DCF6E53A00594680
S1134C40069802F0BBFF002801D0FFF7A3FAB96869
S1134C507B6832AAE9E50E9B139A981A431C1A0042
S1134C600E9315E7374A7B689146FFF7F5FB01235E
S1134C702340139300D089E60E9AD343DB171A40DE
S1134C80089265E50123139A1B399D1A16AA2C3341
S1134C90521813702FE62C4B1193FFF743F82D2372
S1134CA016AAD3779846AAE75346002B01D1E30707
S1134CB003D5179B581C0300ACE7012308E7239B8B
S1134CC0119A9B1A14930E9B472B00D1F6E51F9B58
S1134CD01393FDE50F9B1D1D1B68A8469A46002BE8
S1134CE00ADB4546079B0F955B780792FEF74BFD61
S1134CF016ABD877FFF730F801235B429A46F0E70A
S1134D0016ABD877FEF727FF16ABD877FEF7CEFDA4
S1134D100C48814687E716ABD877FFF729F816AB1E
S1134D20D877FEF7C3FF16ABD877FEF7A5FF16AB0F
S1134D30D877FEF7AFFE16AA2E23944663441AE6EC
S1134D40348B0000808B0000388B0000F0B5150018
S1134D5002221E4C1F008B89A54493436A4693810B
S1134D604B6E06001993CB8916A8D381CB690C002E
S1134D7007934B6A09931AAB009304938023DB00D7
S1134D80029305930023069301F050FD2A003B0093
S1134D9069463000FEF76EFC051E05DB69463000EF
S1134DA001F0ACF900280ED16B469B895B0603D554
S1134DB04022A3891343A381169801F039FD2800EA
S1134DC0034B9D44F0BD01256D42EDE794FBFFFFCD
S1134DD06C040000334B70B5050018680C00002803
S1134DE002D0836B002B3CD00C23E25E93B21907F4
S1134DF00DD52169002915D0DA0721D50023A36038
S1134E00636900205B42A361002921D070BDD906EB
S1134E103FD55B0728D4216908231343A3819BB2A0
S1134E200029E9D1A0228020920080001A40824209
S1134E30E2D02100280001F031FDA3892169DBE7DC
S1134E4000229B0700D46269A26000200029DDD102
S1134E500C22A35E1A06D9D540221343A38101383C
S1134E60D4E701F0A5F9BFE7216B00290AD023009C
S1134E704033994204D0280001F044FA0C23E25E46
S1134E800023236324239A43002321696360216060
S1134E90C2E709232B60402301201A43A281404228
S1134EA0B4E7C04600000020034B10B5002B02D02D
S1134EB0024800F005F810BD000000003162000057
S1134EC010B5010000230022002002F095FE10BD61
S1134ED0F0B545468046DE4657464E464246E0B566
S1134EE00C69126985B00B0002910020944200DD28
S1134EF090E014229446634499464A46013CA30038
S1134F00D6181422424493469B4433681500591C16
S1134F105B4618680192FCF7B5FB031E009042D073
S1134F20290000274D460020B146A2463E00040059
S1134F309C462F0008000395634604CF15042D0CEE
S1134F405D43120C5A43AD192B0CD21803682D047F
S1134F501904090C0919160C2D0C1204491B120C06
S1134F601B0C9B1A0A149B1809041C14090C1B041F
S1134F70194302C0B945DFD2039B4E4699465B46AE
S1134F801B685446002B0ED15B46019A043B9A429F
S1134F9004D306E0043B013C9A4202D2196800297A
S1134FA0F8D043461C610299404602F093FA002867
S1134FB02FDB4F460020009B019D013300932B689B
S1134FC002CF1A04120C10180A04120C821A090CCB
S1134FD01B0C5B1A11145B1812041814120C1B041A
S1134FE0134308C5BE42EAD20199A3008C46634428
S1134FF01A68002A0DD1043B0A00994204D306E042
S1135000043B013C9A4202D219680029F8D0434675
S11350101C61009805B03CBC90469946A246AB463C
S1135020F0BDC046F0B557464E464546DE46E0B5AF
S1135030016C99B082461D0016001F00002909D09A
S11350400123426C93404A608B6002F037F80023DE
S113505052461364B846002F37DB0023259A1360A9
S11350604246D64B1A409A4218D000220023300000
S11350703900FDF7C1FF00282FD00123249A1360C3
S1135080269B002B00D12AE2CD481860013819B0C4
S11350903CBC90469946A246AB46F0BDC94B249A07
S11350A01360002E0BD14346180308D1269BC64833
S11350B0002BECD003000833269A1360E7E7269B05
S11350C0C248002BE3D0C31CF6E70123259A6800ED
S11350D01360430898461F00C2E716AB019317AB51
S11350E0009332003B00504602F0AAFA434683463E
S11350F01A0D00D1D6E13B03B54C1B0B1C43B54B39
S113510030009846169B21009946002390440F9343
S11351100022B14BFDF7C0FAB04AB14BFDF73CF8A1
S1135120B04AB14B03F00AF8040040460D00FDF705
S1135130FDFDAE4AAE4BFDF72FF802000B00200038
S1135140290002F0FBFF04000D00FDF7BBFD002267
S11351500390002320002900FDF754FF002800D00D
S1135160B1E20123039C0C93162C10D8A149E3004F
S1135170C9183200086849683B00FDF757FF00284A
S113518000D11DE32300013B039300230C934B4602
S113519042469A1A002306931300013B049300D558
S11351A0A1E2039B002B00DA84E29C460D930023CA
S11351B0049A9946110061440491229B092B00D959
S11351C08FE10124052B02DD0024043B2293229B62
S11351D0032B01D100F0CEFC01DC00F092FC229BF9
S11351E0042B01D100F040FC01230B93229B052BDF
S11351F001D000F08BFC239A039B944663440E93E6
S1135200013307931D1E01DC00F049FD079B9846FE
S11352100023524600215364172D0AD90122043376
S11352205B0018001430110001328542F8D2534655
S11352305964504601F01AFF5346186443460A90D5
S11352400E2B00D961E1002C00D15EE1109611977C
S1135250039E002E01DC00F025FD32000F21654B7A
S11352600A40D2009B1836111C685D68F30601D40D
S113527000F0CAFC604B0E401A6A5B6A10981199E0
S1135280FCF756FC0323984608900991002E11D090
S1135290594F0123334209D09C463A687B68200069
S11352A02900E044FCF778FF04000D00761008376D
S11352B0002EEED12200089809992B00FCF738FC47
S11352C006000F000C9B002B09D00022404B30003D
S11352D03900FDF797FE002801D000F0C2FD4046DA
S11352E0FDF724FD32003B00FCF756FF0022434B40
S11352F002F024FF424A0B0094466344089009914B
S11353000993079B002B01D100F050FC039B1393DE
S1135310079B12930B9B002B01D100F01DFD129BE8
S113532000205A1E334BD2009B181A685B6835491B
S1135330FCF7FEFB089A099BFDF7AEF9089009916A
S113534039003000FDF7BEFC0400FDF7EFFC02005D
S11353500B0030003900FDF79FF905000E000A9A92
S11353603034511CE7B2149117703300089809992E
S11353702A00FDF75BFE002801D000F0FEFD2A00A4
S1135380330000201249FDF787F902000B0008984A
S11353900999FDF74BFE002801D000F0E7FD129BB0
S11353A0012B01D100F078FC0A9A129B94466344C5
S11353B098464B461293149B994638E00000F07FC0
S11353C06D8B00000F270000908B00009C8B000069
S11353D00000F03F01FCFFFF0000F83F61436F63F2
S11353E0A787D23FB3C8608B288AC63FFB799F50FA
S11353F01344D33FC88B0000A08B000000001C4066
S11354000000C0FC0000E03F2A0033000020B9493E
S1135410FDF742F9089A099BFDF7F4FD002801D035
S113542000F074FDA146444501D100F033FC089816
S113543009990022B04BFCF7AFFE0022AE4B089056
S1135440099128003100FCF7A7FE0D000400FDF7C8
S113545039FC0700FDF76AFC02000B00200029005C
S1135460FDF71AF94B463037FFB25C1C1F70089ADF
S1135470099B05000E00FDF7C5FD0028C4D0139B51
S113548003935946504601F019FE00232370039BF1
S1135490249A01331360269B002B00D1A8E31C60DF
S11354A00A98F4E5169B9946179B4B441C00934BB2
S11354B0E318202B00DC7EE13100914A4046A2181B
S11354C0D1400A004021CB1A98401043FDF770FCEC
S11354D0631E984601238B4D0F93491918E68A4899
S11354E0D5E50023524600215364504601F0BEFD29
S11354F05346186401235B4207930E930233002240
S11355000B9300230A9023922293179B002B00DA1B
S1135510ABE0039A0E2A00DDA7E07C4BD2009B1877
S11355205C681B6804930594239B002B00DAA7E2B4
S1135530049C059D300022002B003900FCF7F8FA8A
S1135540FDF7C0FB8046FDF7F1FB22002B00FCF7C2
S113555023FE02000B0030003900FDF79DF843469E
S11355600A9A30331370079B06000F00541C012B5A
S11355704ED00022604BFCF70FFE002200230600F1
S11355800F00FDF739FD002800D07AE70A9B079A3F
S11355909D1C9C465B46069353466244AA46049C63
S11355A0059D914607930FE00022534BFCF7F4FD51
S11355B001239C460022002306000F00E244FDF76D
S11355C01BFD002800D0D9E222002B003000390056
S11355D0FCF7AEFAFDF776FB8046FDF7A7FB220049
S11355E02B00FCF7D9FD02000B0030003900FDF759
S11355F053F853464246013B303206000F00D3466F
S11356001A70D145D0D1069B54469B46079B9A46B7
S113561032003B003000390002F090FD06000F001C
S113562002000B0004980599FDF7ECFC00280CD14E
S11356300498059932003B00FDF7DEFC002800D1F8
S11356401FE74346DB0700D41BE7651E2F780A9B40
S113565006E09D4200D151E3023C27782C00013D35
S1135660392FF6D001372F700BE70B9A002A4FD051
S1135670229A012A00DC2CE2079B5C1E4B46A145C2
S113568000DAB8E21C1B079B002B00DAD4E3069B6C
S11356900893079B069A012194469C44624606920D
S11356A0049A504694469C446346049301F09EFD3C
S11356B0804632E0069A039BD21A5B429946002345
S11356C006920D9379E50398FDF730FB0B00020079
S11356D029002000FDF790FC020050425041039B3A
S11356E01B1A03933DE501239B1A0693002304939D
S11356F057E5C0460000F03F00002440320400009B
S113570012040000000010FE6C8B0000C88B000027
S1135710069B4C4608930023984608990B1E0EDD01
S1135720049A002A0BDD934200DD87E1069AD21A1F
S11357300692089AD21A0892049AD31A04934B46F2
S1135740002B1AD00B9B002B00D1BBE1002C10DDE9
S113575041462200504601F0FDFD5A4601008046B4
S1135760504601F04DFD05005946504601F0A6FC97
S1135770AB464B461A1B00D0A5E10121504601F06F
S113578035FD0D9B8146002B1DDD1A00010050469E
S113579001F0E0FD229B8146012B00DC50E1002456
S11357A04B461B6903339B004B44586801F0D6FCFD
S11357B020231B1A10E020223000D31A984085E6DB
S11357C000230C93E3E4229B0024012B00DC8BE1F7
S11357D00D9A0123002AE3D104991F208C466344C7
S11357E0184000D1AEE020231B1A042B00DCCCE3CC
S11357F01C23181A069B9C46844463460693089B04
S11358009C46844463468C468444089363460493CC
S1135810069B002B05DD59461A00504601F0FAFD9F
S11358208346049B002B05DD49461A00504601F0CF
S1135830F1FD81460C9B002B00D094E0079B002BCC
S113584000DC75E10B9B002B00D1A6E0089B002B2C
S113585005DD41461A00504601F0DCFD8046434612
S11358600C93002C00D050E2079C0A9A013C2300C0
S11358709446634408930123334007934B460693AD
S11358800C9B574645465E4692469846069B30001A
S113589019009946FFF71CFB03000B9030332900D5
S11358A03000049301F016FE4946040042463800D5
S11358B001F02AFEC3688146002B00D01EE10100DE
S11358C0300001F007FE83464946380001F0F6FB3C
S11358D05B46229A134303D1079B002B00D106E3B6
S11358E0002C00DAA8E1229B1C4303D1079B002B68
S11358F000D1A1E15B46002B00DD82E269465246FD
S11359005346097C5C1C1170089A524500D18AE206
S1135910310000230A22380001F0DAFB00230600DC
S11359200A2229003800454500D1E1E001F0D0FB0E
S11359304146050000230A22380001F0C9FBA246B3
S11359408046A3E71C20069B9C468444634606933A
S1135950089B9C46844463460893049B9C46844469
S11359606346049354E74946584601F0B3FD0028C2
S113597000DB63E7039B5946013B03930A220023A0
S1135980504601F0A5FB0B9B8346002B00D0CAE2D6
S11359900E9B002B00DCD8E207930A9B5D46002493
S11359A0079F9B4606E0290000230A22504601F087
S11359B08FFB050049462800FFF78AFA5B46303022
S11359C018550134BC42EEDBAB460600079C002CA4
S11359D000DC37E20A9B00279C46644459460122B6
S11359E0504601F017FD4946834601F073FD002837
S11359F000DC44E1651E2B780A9A06E0954200D14A
S1135A00B1E0023C23782C00013D392BF6D0013360
S1135A102B704946504601F051FB4346002B00D100
S1135A202FE5002F05D0474503D03900504601F03B
S1135A3045FB4146504601F041FB22E5130075E663
S1135A40002E00D0ABE63B030024002B00D0BFE6C1
S1135A50BA4B3B4200D1BBE6069B013401330693AB
S1135A60049B01330493B3E601230B93239B002B84
S1135A7000DCD1E01D0098460E930793FFF7C8FBA6
S1135A80079B002B00DD53E500D0ADE00498059999
S1135A900022AB4BFCF780FB3B003200FDF7D0FA51
S1135AA0002399469846002855D0239B0A9CDB4343
S1135AB003934946504601F001FB4346002B00D1B5
S1135AC0DFE4B6E74A465946504601F043FC8346B4
S1135AD053E60F9A002A00D1B6E19A4A4C469446FE
S1135AE0069A63440892D5E5002E00D070E6AAE732
S1135AF001F0EEFAA24605008046C7E601239B4664
S1135B00E2E600230B93229B022BAFD000245346E2
S1135B1021005C64504601F0A9FA5346186401233D
S1135B205B4207930E9302330A9023940B93ECE4A5
S1135B30229B022B00DC85E6079B002BB5D149464E
S1135B400522504601F0C4FA81460100584601F08E
S1135B50C1FC0028A9DD31230A9A1370039B541C4D
S1135B6001330393A5E7039B0A9A0133039331237B
S1135B7013704EE700230B93FFF73DFB069B5C4637
S1135B809B46079B9A467CE44046FDF7CFF83200DB
S1135B903B00FCF701FB00226B4B02F0CFFA6B4A8F
S1135BA00B00944663440890099109930022644BC6
S1135BB030003900FCF770FD089E099F32003B005D
S1135BC004000D00FDF732FA002800D0B2E0802076
S1135BD000068446390061440B003200200029008D
S1135BE0FDF710FA002857D00023994698465CE741
S1135BF00A98FFF74CFAE21A0D9BA1469C4694447E
S1135C00634600240D933EE5109A119B0892099374
S1135C1002239846FFF73AFB0023524600215364BF
S1135C20504601F023FA5346186401230A9007935F
S1135C3023930E93FFF707FB43460C935B46069AA8
S1135C40A846B3465546049E9146BA46002B10DD3D
S1135C5059460122380001F0DDFB4946834601F034
S1135C6039FC002800DC57E1392E00D122E10B9EDB
S1135C7031360C9B47466C1C2E709846C9E60028AA
S1135C8003D1F30701D5B5E61C00631E1A78302A48
S1135C90FAD0BEE6129B9946109E119F35E4012569
S1135CA0FFF7B4FA039B002B00D1D4E010981199AC
S1135CB05C420F23264A2340DB00D3181A685B6832
S1135CC0FCF76AFA241106000F00002C00D149E108
S1135CD0022398461F4D0123234209D09C462A687B
S1135CE06B6830003900E044FCF756FA06000F00F8
